{
  "contractName": "Venly_NFT_Request",
  "abi": [
    {
      "inputs": [],
      "stateMutability": "nonpayable",
      "type": "constructor"
    },
    {
      "anonymous": false,
      "inputs": [
        {
          "indexed": false,
          "internalType": "string",
          "name": "asset_contract_address",
          "type": "string"
        },
        {
          "indexed": false,
          "internalType": "string",
          "name": "token_id",
          "type": "string"
        },
        {
          "indexed": false,
          "internalType": "bool",
          "name": "hasAnimation",
          "type": "bool"
        }
      ],
      "name": "nftAssetParams",
      "type": "event"
    },
    {
      "inputs": [],
      "name": "isActive",
      "outputs": [
        {
          "internalType": "bool",
          "name": "",
          "type": "bool"
        }
      ],
      "stateMutability": "view",
      "type": "function",
      "constant": true
    },
    {
      "inputs": [],
      "name": "pricePrm",
      "outputs": [
        {
          "internalType": "uint256",
          "name": "",
          "type": "uint256"
        }
      ],
      "stateMutability": "view",
      "type": "function",
      "constant": true
    },
    {
      "inputs": [],
      "name": "priceStd",
      "outputs": [
        {
          "internalType": "uint256",
          "name": "",
          "type": "uint256"
        }
      ],
      "stateMutability": "view",
      "type": "function",
      "constant": true
    },
    {
      "inputs": [
        {
          "internalType": "string",
          "name": "_asset_contract_address",
          "type": "string"
        },
        {
          "internalType": "string",
          "name": "_token_id",
          "type": "string"
        },
        {
          "internalType": "bool",
          "name": "_hasAnimation",
          "type": "bool"
        }
      ],
      "name": "pinNFT",
      "outputs": [],
      "stateMutability": "payable",
      "type": "function",
      "payable": true
    },
    {
      "inputs": [
        {
          "internalType": "uint256",
          "name": "_priceStd",
          "type": "uint256"
        },
        {
          "internalType": "uint256",
          "name": "_pricePrm",
          "type": "uint256"
        }
      ],
      "name": "setPrices",
      "outputs": [],
      "stateMutability": "nonpayable",
      "type": "function"
    },
    {
      "inputs": [
        {
          "internalType": "bool",
          "name": "_isActive",
          "type": "bool"
        }
      ],
      "name": "setApiState",
      "outputs": [],
      "stateMutability": "nonpayable",
      "type": "function"
    },
    {
      "inputs": [
        {
          "internalType": "address payable",
          "name": "recipient",
          "type": "address"
        },
        {
          "internalType": "uint256",
          "name": "amount",
          "type": "uint256"
        }
      ],
      "name": "transferFunds",
      "outputs": [],
      "stateMutability": "nonpayable",
      "type": "function"
    }
  ],
  "bytecode": "0x608060405234801561001057600080fd5b5033600260016101000a81548173ffffffffffffffffffffffffffffffffffffffff021916908373ffffffffffffffffffffffffffffffffffffffff160217905550610b4c806100616000396000f3fe6080604052600436106100705760003560e01c806367db45111161004e57806367db4511146100f2578063749805ff1461011d578063990dc9db14610139578063b64008b11461016257610070565b806305fefda714610075578063137769db1461009e57806322f3e2d4146100c7575b600080fd5b34801561008157600080fd5b5061009c6004803603810190610097919061057f565b61018d565b005b3480156100aa57600080fd5b506100c560048036038101906100c091906105f7565b61022f565b005b3480156100d357600080fd5b506100dc6102dc565b6040516100e99190610633565b60405180910390f35b3480156100fe57600080fd5b506101076102ef565b604051610114919061065d565b60405180910390f35b610137600480360381019061013291906106dd565b6102f5565b005b34801561014557600080fd5b50610160600480360381019061015b91906107d0565b61044b565b005b34801561016e57600080fd5b50610177610539565b604051610184919061065d565b60405180910390f35b600260019054906101000a900473ffffffffffffffffffffffffffffffffffffffff1673ffffffffffffffffffffffffffffffffffffffff163373ffffffffffffffffffffffffffffffffffffffff161461021d576040517f08c379a00000000000000000000000000000000000000000000000000000000081526004016102149061086d565b60405180910390fd5b81600081905550806001819055505050565b600260019054906101000a900473ffffffffffffffffffffffffffffffffffffffff1673ffffffffffffffffffffffffffffffffffffffff163373ffffffffffffffffffffffffffffffffffffffff16146102bf576040517f08c379a00000000000000000000000000000000000000000000000000000000081526004016102b69061086d565b60405180910390fd5b80600260006101000a81548160ff02191690831515021790555050565b600260009054906101000a900460ff1681565b60015481565b66038d7ea4c6800060005461030a91906108bc565b34108015610316575080155b15610356576040517f08c379a000000000000000000000000000000000000000000000000000000000815260040161034d90610962565b60405180910390fd5b66038d7ea4c6800060015461036b91906108bc565b341080156103765750805b156103b6576040517f08c379a00000000000000000000000000000000000000000000000000000000081526004016103ad90610962565b60405180910390fd5b600260009054906101000a900460ff16610405576040517f08c379a00000000000000000000000000000000000000000000000000000000081526004016103fc906109f4565b60405180910390fd5b7fe5a9fc01f3e99269ff8d0a3c6df2217ffc7ac07bab59a2f00caf38608cef25e0858585858560405161043c959493929190610a61565b60405180910390a15050505050565b600260019054906101000a900473ffffffffffffffffffffffffffffffffffffffff1673ffffffffffffffffffffffffffffffffffffffff163373ffffffffffffffffffffffffffffffffffffffff16146104db576040517f08c379a00000000000000000000000000000000000000000000000000000000081526004016104d290610af6565b60405180910390fd5b8173ffffffffffffffffffffffffffffffffffffffff166108fc670de0b6b3a76400008361050991906108bc565b9081150290604051600060405180830381858888f19350505050158015610534573d6000803e3d6000fd5b505050565b60005481565b600080fd5b600080fd5b6000819050919050565b61055c81610549565b811461056757600080fd5b50565b60008135905061057981610553565b92915050565b600080604083850312156105965761059561053f565b5b60006105a48582860161056a565b92505060206105b58582860161056a565b9150509250929050565b60008115159050919050565b6105d4816105bf565b81146105df57600080fd5b50565b6000813590506105f1816105cb565b92915050565b60006020828403121561060d5761060c61053f565b5b600061061b848285016105e2565b91505092915050565b61062d816105bf565b82525050565b60006020820190506106486000830184610624565b92915050565b61065781610549565b82525050565b6000602082019050610672600083018461064e565b92915050565b600080fd5b600080fd5b600080fd5b60008083601f84011261069d5761069c610678565b5b8235905067ffffffffffffffff8111156106ba576106b961067d565b5b6020830191508360018202830111156106d6576106d5610682565b5b9250929050565b6000806000806000606086880312156106f9576106f861053f565b5b600086013567ffffffffffffffff81111561071757610716610544565b5b61072388828901610687565b9550955050602086013567ffffffffffffffff81111561074657610745610544565b5b61075288828901610687565b93509350506040610765888289016105e2565b9150509295509295909350565b600073ffffffffffffffffffffffffffffffffffffffff82169050919050565b600061079d82610772565b9050919050565b6107ad81610792565b81146107b857600080fd5b50565b6000813590506107ca816107a4565b92915050565b600080604083850312156107e7576107e661053f565b5b60006107f5858286016107bb565b92505060206108068582860161056a565b9150509250929050565b600082825260208201905092915050565b7f77726f6e67206f776e65722c2063616e74207570646174650000000000000000600082015250565b6000610857601883610810565b915061086282610821565b602082019050919050565b600060208201905081810360008301526108868161084a565b9050919050565b7f4e487b7100000000000000000000000000000000000000000000000000000000600052601160045260246000fd5b60006108c782610549565b91506108d283610549565b9250817fffffffffffffffffffffffffffffffffffffffffffffffffffffffffffffffff048311821515161561090b5761090a61088d565b5b828202905092915050565b7f4e6f7420656e6f75676820657468657200000000000000000000000000000000600082015250565b600061094c601083610810565b915061095782610916565b602082019050919050565b6000602082019050818103600083015261097b8161093f565b9050919050565b7f41504920696e6163746976652c20636865636b20646563656e746170692e636f60008201527f6d20666f72207374617475732e00000000000000000000000000000000000000602082015250565b60006109de602d83610810565b91506109e982610982565b604082019050919050565b60006020820190508181036000830152610a0d816109d1565b9050919050565b82818337600083830152505050565b6000601f19601f8301169050919050565b6000610a408385610810565b9350610a4d838584610a14565b610a5683610a23565b840190509392505050565b60006060820190508181036000830152610a7c818789610a34565b90508181036020830152610a91818587610a34565b9050610aa06040830184610624565b9695505050505050565b7f77726f6e67206f776e65722c2063616e74207472616e73666572000000000000600082015250565b6000610ae0601a83610810565b9150610aeb82610aaa565b602082019050919050565b60006020820190508181036000830152610b0f81610ad3565b905091905056fea2646970667358221220d0a96eccae23bc7014db2e15686e350006c1efeb3ba6b72920591d3ba4d0632464736f6c634300080a0033",
  "immutableReferences": {},
  "source": "// SPDX-License-Identifier: MIT\r\npragma solidity >= 0.5.16 < 0.9.0;\r\n\r\ncontract Venly_NFT_Request {\r\n\r\n    uint public priceStd;\r\n    uint public pricePrm;\r\n    bool public isActive;\r\n    \r\n    address admin;\r\n\r\n\r\n    constructor(){\r\n        admin = msg.sender;\r\n\r\n    }\r\n\r\n    event nftAssetParams(\r\n        string asset_contract_address,\r\n        string token_id,\r\n        bool hasAnimation\r\n    );\r\n\r\n    function pinNFT(string calldata _asset_contract_address, string calldata _token_id, bool _hasAnimation) external payable {\r\n        if ((msg.value < priceStd*1000000000000000 )&&(!_hasAnimation)) {\r\n            revert('Not enough ether');\r\n        }\r\n        if ((msg.value < pricePrm*1000000000000000 )&&(_hasAnimation)) {\r\n            revert('Not enough ether');\r\n        }\r\n        if (!isActive){\r\n            revert('API inactive, check decentapi.com for status.');\r\n        }\r\n\r\n\r\n        emit nftAssetParams(_asset_contract_address, _token_id,_hasAnimation);\r\n\r\n\r\n\r\n    }  \r\n\r\n\r\n    function setPrices(uint _priceStd, uint _pricePrm) external {\r\n        if (msg.sender != admin) {\r\n            revert('wrong owner, cant update');\r\n        }\r\n\r\n        \r\n        \r\n        priceStd = _priceStd;\r\n        pricePrm = _pricePrm;\r\n\r\n\r\n\r\n    }\r\n\r\n    function setApiState(bool _isActive) external {\r\n        if (msg.sender != admin) {\r\n            revert('wrong owner, cant update');\r\n        }\r\n\r\n        isActive = _isActive;\r\n\r\n\r\n    }\r\n\r\n\r\n\r\n    function transferFunds(address payable recipient, uint256 amount) external {\r\n        if (msg.sender != admin) {\r\n            revert('wrong owner, cant transfer');\r\n        }\r\n        recipient.transfer(amount * 1E18);\r\n    }\r\n\r\n    \r\n\r\n\r\n\r\n\r\n\r\n\r\n\r\n\r\n\r\n}",
  "sourcePath": "C:\\Users\\Salah\\projects\\web3_venly\\contracts\\Venly_NFT_Request.sol",
  "compiler": {
    "name": "solc",
    "version": "0.8.10+commit.fc410830.Emscripten.clang"
  },
  "schemaVersion": "3.4.5",
  "updatedAt": "2022-02-19T01:02:40.619Z",
  "networkType": "ethereum",
  "devdoc": {
    "kind": "dev",
    "methods": {},
    "version": 1
  },
  "userdoc": {
    "kind": "user",
    "methods": {},
    "version": 1
  }
}